{
	"_format": "hh-sol-artifact-1",
	"contractName": "MockAddressRegistry",
	"sourceName": "contracts/test/MockAddressRegistry.sol",
	"abi": [
		{
			"inputs": [
				{
					"internalType": "string",
					"name": "_key",
					"type": "string"
				}
			],
			"name": "registries",
			"outputs": [
				{
					"internalType": "address",
					"name": "",
					"type": "address"
				}
			],
			"stateMutability": "view",
			"type": "function"
		},
		{
			"inputs": [
				{
					"internalType": "string",
					"name": "_key",
					"type": "string"
				},
				{
					"internalType": "address",
					"name": "_addr",
					"type": "address"
				}
			],
			"name": "setRegistry",
			"outputs": [],
			"stateMutability": "nonpayable",
			"type": "function"
		}
	],
	"bytecode": "0x608060405234801561001057600080fd5b50610491806100206000396000f3fe608060405234801561001057600080fd5b50600436106100365760003560e01c806393b4025a1461003b578063df5cbf7d14610057575b600080fd5b6100556004803603810190610050919061022d565b610087565b005b610071600480360381019061006c91906101ec565b610108565b60405161007e91906102d8565b60405180910390f35b60008260405160200161009a91906102c1565b6040516020818303038152906040528051906020012090508160008083815260200190815260200160002060006101000a81548173ffffffffffffffffffffffffffffffffffffffff021916908373ffffffffffffffffffffffffffffffffffffffff160217905550505050565b6000808260405160200161011c91906102c1565b60405160208183030381529060405280519060200120905060008082815260200190815260200160002060009054906101000a900473ffffffffffffffffffffffffffffffffffffffff16915050919050565b600061018261017d84610318565b6102f3565b90508281526020810184848401111561019a57600080fd5b6101a5848285610391565b509392505050565b6000813590506101bc81610444565b92915050565b600082601f8301126101d357600080fd5b81356101e384826020860161016f565b91505092915050565b6000602082840312156101fe57600080fd5b600082013567ffffffffffffffff81111561021857600080fd5b610224848285016101c2565b91505092915050565b6000806040838503121561024057600080fd5b600083013567ffffffffffffffff81111561025a57600080fd5b610266858286016101c2565b9250506020610277858286016101ad565b9150509250929050565b61028a8161035f565b82525050565b600061029b82610349565b6102a58185610354565b93506102b58185602086016103a0565b80840191505092915050565b60006102cd8284610290565b915081905092915050565b60006020820190506102ed6000830184610281565b92915050565b60006102fd61030e565b905061030982826103d3565b919050565b6000604051905090565b600067ffffffffffffffff82111561033357610332610404565b5b61033c82610433565b9050602081019050919050565b600081519050919050565b600081905092915050565b600061036a82610371565b9050919050565b600073ffffffffffffffffffffffffffffffffffffffff82169050919050565b82818337600083830152505050565b60005b838110156103be5780820151818401526020810190506103a3565b838111156103cd576000848401525b50505050565b6103dc82610433565b810181811067ffffffffffffffff821117156103fb576103fa610404565b5b80604052505050565b7f4e487b7100000000000000000000000000000000000000000000000000000000600052604160045260246000fd5b6000601f19601f8301169050919050565b61044d8161035f565b811461045857600080fd5b5056fea2646970667358221220cc56e7c6c9c402f7862e943d01f5ab6e6e8500e11cee076e1e74050ecc7c95b164736f6c63430008040033",
	"linkReferences": {},
	"deployedLinkReferences": {}
}