{
	"_format": "hh-sol-artifact-1",
	"contractName": "MockMarket",
	"sourceName": "contracts/test/MockMarket.sol",
	"abi": [
		{
			"inputs": [
				{
					"internalType": "address",
					"name": "_behavior",
					"type": "address"
				}
			],
			"stateMutability": "nonpayable",
			"type": "constructor"
		},
		{
			"inputs": [
				{
					"internalType": "address",
					"name": "",
					"type": "address"
				},
				{
					"internalType": "string[]",
					"name": "",
					"type": "string[]"
				}
			],
			"name": "authenticate",
			"outputs": [
				{
					"internalType": "bool",
					"name": "",
					"type": "bool"
				}
			],
			"stateMutability": "pure",
			"type": "function"
		},
		{
			"inputs": [
				{
					"internalType": "address",
					"name": "",
					"type": "address"
				},
				{
					"internalType": "address",
					"name": "",
					"type": "address"
				},
				{
					"internalType": "string[]",
					"name": "",
					"type": "string[]"
				}
			],
			"name": "authenticateFromPropertyFactory",
			"outputs": [
				{
					"internalType": "bool",
					"name": "",
					"type": "bool"
				}
			],
			"stateMutability": "pure",
			"type": "function"
		},
		{
			"inputs": [
				{
					"internalType": "address",
					"name": "",
					"type": "address"
				},
				{
					"internalType": "bytes32",
					"name": "",
					"type": "bytes32"
				}
			],
			"name": "authenticatedCallback",
			"outputs": [
				{
					"internalType": "address",
					"name": "",
					"type": "address"
				}
			],
			"stateMutability": "view",
			"type": "function"
		},
		{
			"inputs": [],
			"name": "behavior",
			"outputs": [
				{
					"internalType": "address",
					"name": "",
					"type": "address"
				}
			],
			"stateMutability": "view",
			"type": "function"
		},
		{
			"inputs": [
				{
					"internalType": "address",
					"name": "",
					"type": "address"
				}
			],
			"name": "deauthenticate",
			"outputs": [],
			"stateMutability": "pure",
			"type": "function"
		},
		{
			"inputs": [],
			"name": "enabled",
			"outputs": [
				{
					"internalType": "bool",
					"name": "",
					"type": "bool"
				}
			],
			"stateMutability": "pure",
			"type": "function"
		},
		{
			"inputs": [],
			"name": "issuedMetrics",
			"outputs": [
				{
					"internalType": "uint256",
					"name": "",
					"type": "uint256"
				}
			],
			"stateMutability": "pure",
			"type": "function"
		},
		{
			"inputs": [],
			"name": "latestMetrics",
			"outputs": [
				{
					"internalType": "address",
					"name": "",
					"type": "address"
				}
			],
			"stateMutability": "view",
			"type": "function"
		},
		{
			"inputs": [],
			"name": "name",
			"outputs": [
				{
					"internalType": "string",
					"name": "",
					"type": "string"
				}
			],
			"stateMutability": "pure",
			"type": "function"
		},
		{
			"inputs": [],
			"name": "schema",
			"outputs": [
				{
					"internalType": "string",
					"name": "",
					"type": "string"
				}
			],
			"stateMutability": "pure",
			"type": "function"
		},
		{
			"inputs": [
				{
					"internalType": "address",
					"name": "_metrics",
					"type": "address"
				}
			],
			"name": "setLatestMetrics",
			"outputs": [],
			"stateMutability": "nonpayable",
			"type": "function"
		},
		{
			"inputs": [],
			"name": "toEnable",
			"outputs": [],
			"stateMutability": "nonpayable",
			"type": "function"
		},
		{
			"inputs": [],
			"name": "votingEndTimestamp",
			"outputs": [
				{
					"internalType": "uint256",
					"name": "",
					"type": "uint256"
				}
			],
			"stateMutability": "pure",
			"type": "function"
		}
	],
	"bytecode": "0x608060405234801561001057600080fd5b506040516109e13803806109e18339818101604052810190610032919061008e565b80600160006101000a81548173ffffffffffffffffffffffffffffffffffffffff021916908373ffffffffffffffffffffffffffffffffffffffff16021790555050610100565b600081519050610088816100e9565b92915050565b6000602082840312156100a057600080fd5b60006100ae84828501610079565b91505092915050565b60006100c2826100c9565b9050919050565b600073ffffffffffffffffffffffffffffffffffffffff82169050919050565b6100f2816100b7565b81146100fd57600080fd5b50565b6108d28061010f6000396000f3fe608060405234801561001057600080fd5b50600436106100cf5760003560e01c806383495bf81161008c578063aa4930db11610066578063aa4930db146101f0578063df68fb181461020c578063f7b92fcd1461023c578063f8895cc81461025a576100cf565b806383495bf8146101865780638affaaf3146101a25780639c73155b146101c0576100cf565b806306fdde03146100d4578063092d9ff7146100f2578063238dafe0146101225780634c3ea4fe14610140578063777254721461014a57806378956f0d14610168575b600080fd5b6100dc610278565b6040516100e9919061068e565b60405180910390f35b61010c60048036038101906101079190610562565b61028f565b6040516101199190610673565b60405180910390f35b61012a61029b565b6040516101379190610673565b60405180910390f35b6101486102a4565b005b6101526102a6565b60405161015f91906106b0565b60405180910390f35b6101706102ab565b60405161017d9190610658565b60405180910390f35b6101a0600480360381019061019b91906104d2565b6102d1565b005b6101aa6102d4565b6040516101b791906106b0565b60405180910390f35b6101da60048036038101906101d591906104fb565b6102d9565b6040516101e79190610673565b60405180910390f35b61020a600480360381019061020591906104d2565b6102e6565b005b610226600480360381019061022191906105b6565b610329565b6040516102339190610658565b60405180910390f35b610244610355565b6040516102519190610658565b60405180910390f35b610262610379565b60405161026f919061068e565b60405180910390f35b606060405180602001604052806000815250905090565b60006001905092915050565b60006001905090565b565b600090565b600160009054906101000a900473ffffffffffffffffffffffffffffffffffffffff1681565b50565b600090565b6000600190509392505050565b806000806101000a81548173ffffffffffffffffffffffffffffffffffffffff021916908373ffffffffffffffffffffffffffffffffffffffff16021790555050565b60008060009054906101000a900473ffffffffffffffffffffffffffffffffffffffff16905092915050565b60008054906101000a900473ffffffffffffffffffffffffffffffffffffffff1681565b606060405180602001604052806000815250905090565b60006103a361039e846106f0565b6106cb565b905080838252602082019050828560208602820111156103c257600080fd5b60005b8581101561040c57813567ffffffffffffffff8111156103e457600080fd5b8086016103f189826104a8565b855260208501945060208401935050506001810190506103c5565b5050509392505050565b60006104296104248461071c565b6106cb565b90508281526020810184848401111561044157600080fd5b61044c8482856107bb565b509392505050565b6000813590506104638161086e565b92915050565b600082601f83011261047a57600080fd5b813561048a848260208601610390565b91505092915050565b6000813590506104a281610885565b92915050565b600082601f8301126104b957600080fd5b81356104c9848260208601610416565b91505092915050565b6000602082840312156104e457600080fd5b60006104f284828501610454565b91505092915050565b60008060006060848603121561051057600080fd5b600061051e86828701610454565b935050602061052f86828701610454565b925050604084013567ffffffffffffffff81111561054c57600080fd5b61055886828701610469565b9150509250925092565b6000806040838503121561057557600080fd5b600061058385828601610454565b925050602083013567ffffffffffffffff8111156105a057600080fd5b6105ac85828601610469565b9150509250929050565b600080604083850312156105c957600080fd5b60006105d785828601610454565b92505060206105e885828601610493565b9150509250929050565b6105fb81610769565b82525050565b61060a8161077b565b82525050565b600061061b8261074d565b6106258185610758565b93506106358185602086016107ca565b61063e8161085d565b840191505092915050565b610652816107b1565b82525050565b600060208201905061066d60008301846105f2565b92915050565b60006020820190506106886000830184610601565b92915050565b600060208201905081810360008301526106a88184610610565b905092915050565b60006020820190506106c56000830184610649565b92915050565b60006106d56106e6565b90506106e182826107fd565b919050565b6000604051905090565b600067ffffffffffffffff82111561070b5761070a61082e565b5b602082029050602081019050919050565b600067ffffffffffffffff8211156107375761073661082e565b5b6107408261085d565b9050602081019050919050565b600081519050919050565b600082825260208201905092915050565b600061077482610791565b9050919050565b60008115159050919050565b6000819050919050565b600073ffffffffffffffffffffffffffffffffffffffff82169050919050565b6000819050919050565b82818337600083830152505050565b60005b838110156107e85780820151818401526020810190506107cd565b838111156107f7576000848401525b50505050565b6108068261085d565b810181811067ffffffffffffffff821117156108255761082461082e565b5b80604052505050565b7f4e487b7100000000000000000000000000000000000000000000000000000000600052604160045260246000fd5b6000601f19601f8301169050919050565b61087781610769565b811461088257600080fd5b50565b61088e81610787565b811461089957600080fd5b5056fea26469706673582212204f33a64f95058968d2d9c80d543aff52cf54ecd8eb8f31590b7cd7c2fbcfb20a64736f6c63430008040033",
	"linkReferences": {},
	"deployedLinkReferences": {}
}